{
  "contractName": "PackManager",
  "abi": [
    {
      "constant": true,
      "inputs": [],
      "name": "ceoAddress",
      "outputs": [
        {
          "name": "",
          "type": "address"
        }
      ],
      "payable": false,
      "stateMutability": "view",
      "type": "function"
    },
    {
      "constant": false,
      "inputs": [
        {
          "name": "_newCEO",
          "type": "address"
        }
      ],
      "name": "setCEO",
      "outputs": [],
      "payable": false,
      "stateMutability": "nonpayable",
      "type": "function"
    },
    {
      "constant": false,
      "inputs": [],
      "name": "unpause",
      "outputs": [],
      "payable": false,
      "stateMutability": "nonpayable",
      "type": "function"
    },
    {
      "constant": true,
      "inputs": [],
      "name": "paused",
      "outputs": [
        {
          "name": "",
          "type": "bool"
        }
      ],
      "payable": false,
      "stateMutability": "view",
      "type": "function"
    },
    {
      "constant": false,
      "inputs": [],
      "name": "withdrawBalance",
      "outputs": [],
      "payable": false,
      "stateMutability": "nonpayable",
      "type": "function"
    },
    {
      "constant": false,
      "inputs": [],
      "name": "pause",
      "outputs": [],
      "payable": false,
      "stateMutability": "nonpayable",
      "type": "function"
    },
    {
      "constant": true,
      "inputs": [
        {
          "name": "_address",
          "type": "address"
        }
      ],
      "name": "hasAccess",
      "outputs": [
        {
          "name": "",
          "type": "bool"
        }
      ],
      "payable": false,
      "stateMutability": "view",
      "type": "function"
    },
    {
      "constant": false,
      "inputs": [
        {
          "name": "_address",
          "type": "address"
        },
        {
          "name": "_isAllowed",
          "type": "bool"
        }
      ],
      "name": "setAccess",
      "outputs": [],
      "payable": false,
      "stateMutability": "nonpayable",
      "type": "function"
    },
    {
      "inputs": [
        {
          "name": "_storageAddress",
          "type": "address"
        }
      ],
      "payable": false,
      "stateMutability": "nonpayable",
      "type": "constructor"
    },
    {
      "payable": true,
      "stateMutability": "payable",
      "type": "fallback"
    },
    {
      "anonymous": false,
      "inputs": [
        {
          "indexed": false,
          "name": "packId",
          "type": "uint256"
        }
      ],
      "name": "PackCreated",
      "type": "event"
    },
    {
      "anonymous": false,
      "inputs": [],
      "name": "Pause",
      "type": "event"
    },
    {
      "anonymous": false,
      "inputs": [],
      "name": "Unpause",
      "type": "event"
    },
    {
      "constant": false,
      "inputs": [
        {
          "name": "_size",
          "type": "uint256"
        },
        {
          "name": "_price",
          "type": "uint256"
        },
        {
          "name": "_stock",
          "type": "uint256"
        }
      ],
      "name": "createPack",
      "outputs": [],
      "payable": false,
      "stateMutability": "nonpayable",
      "type": "function"
    },
    {
      "constant": true,
      "inputs": [],
      "name": "getPackCount",
      "outputs": [
        {
          "name": "",
          "type": "uint256"
        }
      ],
      "payable": false,
      "stateMutability": "view",
      "type": "function"
    },
    {
      "constant": false,
      "inputs": [
        {
          "name": "_sizes",
          "type": "uint256[]"
        },
        {
          "name": "_price",
          "type": "uint256[]"
        },
        {
          "name": "_stocks",
          "type": "uint256[]"
        }
      ],
      "name": "createPacks",
      "outputs": [],
      "payable": false,
      "stateMutability": "nonpayable",
      "type": "function"
    },
    {
      "constant": false,
      "inputs": [
        {
          "name": "_packId",
          "type": "uint256"
        },
        {
          "name": "_size",
          "type": "uint256"
        },
        {
          "name": "_price",
          "type": "uint256"
        },
        {
          "name": "_stock",
          "type": "uint256"
        }
      ],
      "name": "updatePack",
      "outputs": [],
      "payable": false,
      "stateMutability": "nonpayable",
      "type": "function"
    },
    {
      "constant": false,
      "inputs": [
        {
          "name": "_packId",
          "type": "uint256"
        },
        {
          "name": "_packSize",
          "type": "uint256"
        }
      ],
      "name": "setPackSize",
      "outputs": [],
      "payable": false,
      "stateMutability": "nonpayable",
      "type": "function"
    },
    {
      "constant": true,
      "inputs": [
        {
          "name": "_packId",
          "type": "uint256"
        }
      ],
      "name": "isPackReleased",
      "outputs": [
        {
          "name": "",
          "type": "bool"
        }
      ],
      "payable": false,
      "stateMutability": "view",
      "type": "function"
    },
    {
      "constant": true,
      "inputs": [
        {
          "name": "_packId",
          "type": "uint256"
        }
      ],
      "name": "isPackSoldOut",
      "outputs": [
        {
          "name": "",
          "type": "bool"
        }
      ],
      "payable": false,
      "stateMutability": "view",
      "type": "function"
    },
    {
      "constant": true,
      "inputs": [
        {
          "name": "_packId",
          "type": "uint256"
        }
      ],
      "name": "packExists",
      "outputs": [
        {
          "name": "",
          "type": "bool"
        }
      ],
      "payable": false,
      "stateMutability": "view",
      "type": "function"
    },
    {
      "constant": false,
      "inputs": [
        {
          "name": "_packId",
          "type": "uint256"
        },
        {
          "name": "_packStock",
          "type": "uint256"
        }
      ],
      "name": "setPackStock",
      "outputs": [],
      "payable": false,
      "stateMutability": "nonpayable",
      "type": "function"
    },
    {
      "constant": false,
      "inputs": [
        {
          "name": "_packId",
          "type": "uint256"
        },
        {
          "name": "_packSellingPrice",
          "type": "uint256"
        }
      ],
      "name": "setSellingPrice",
      "outputs": [],
      "payable": false,
      "stateMutability": "nonpayable",
      "type": "function"
    },
    {
      "constant": false,
      "inputs": [
        {
          "name": "_packId",
          "type": "uint256"
        }
      ],
      "name": "mintPack",
      "outputs": [],
      "payable": false,
      "stateMutability": "nonpayable",
      "type": "function"
    },
    {
      "constant": false,
      "inputs": [
        {
          "name": "_packId",
          "type": "uint256"
        }
      ],
      "name": "releasePack",
      "outputs": [],
      "payable": false,
      "stateMutability": "nonpayable",
      "type": "function"
    },
    {
      "constant": true,
      "inputs": [
        {
          "name": "_packId",
          "type": "uint256"
        }
      ],
      "name": "getPack",
      "outputs": [
        {
          "name": "_size",
          "type": "uint256"
        },
        {
          "name": "_minted",
          "type": "uint256"
        },
        {
          "name": "_stock",
          "type": "uint256"
        },
        {
          "name": "_isReleased",
          "type": "bool"
        },
        {
          "name": "_price",
          "type": "uint256"
        },
        {
          "name": "_itemLen",
          "type": "uint256"
        }
      ],
      "payable": false,
      "stateMutability": "view",
      "type": "function"
    }
  ],
  "bytecode": "0x608060405260008060006101000a81548160ff02191690831515021790555034801561002a57600080fd5b50604051602080612fad8339810180604052810190808051906020019092919050505033600060016101000a81548173ffffffffffffffffffffffffffffffffffffffff021916908373ffffffffffffffffffffffffffffffffffffffff16021790555080600260006101000a81548173ffffffffffffffffffffffffffffffffffffffff021916908373ffffffffffffffffffffffffffffffffffffffff16021790555050612ece806100df6000396000f30060806040526004361061011d576000357c0100000000000000000000000000000000000000000000000000000000900463ffffffff16806303fa9f8b1461011f57806304b4104f146101605780630a0f8168146101cb578063200aeb4a146102225780632535cdb01461024f57806327d7874c146102865780633f4ba83a146102c95780634527503c146102e05780634583cfa91461030b5780635c975abb146103425780635fd8c7101461037157806364b00d5d146103885780638456cb59146103bf57806386cddc90146103d6578063895ec54c1461042157806395a078e81461048957806397cbc47d146104e4578063b84614a514610529578063d45765e214610578578063dcd1587e146105a5578063e5fc0430146105ea575b005b34801561012b57600080fd5b5061015e60048036038101908080359060200190929190803590602001909291908035906020019092919050505061062f565b005b34801561016c57600080fd5b506101c9600480360381019080803590602001908201803590602001919091929391929390803590602001908201803590602001919091929391929390803590602001908201803590602001919091929391929390505050610ed7565b005b3480156101d757600080fd5b506101e0610fb2565b604051808273ffffffffffffffffffffffffffffffffffffffff1673ffffffffffffffffffffffffffffffffffffffff16815260200191505060405180910390f35b34801561022e57600080fd5b5061024d60048036038101908080359060200190929190505050610fd8565b005b34801561025b57600080fd5b5061028460048036038101908080359060200190929190803590602001909291905050506113ab565b005b34801561029257600080fd5b506102c7600480360381019080803573ffffffffffffffffffffffffffffffffffffffff169060200190929190505050611501565b005b3480156102d557600080fd5b506102de6115dd565b005b3480156102ec57600080fd5b506102f561169b565b6040518082815260200191505060405180910390f35b34801561031757600080fd5b5061034060048036038101908080359060200190929190803590602001909291905050506117cf565b005b34801561034e57600080fd5b506103576118de565b604051808215151515815260200191505060405180910390f35b34801561037d57600080fd5b506103866118f0565b005b34801561039457600080fd5b506103bd60048036038101908080359060200190929190803590602001909291905050506119ce565b005b3480156103cb57600080fd5b506103d4611add565b005b3480156103e257600080fd5b5061041f60048036038101908080359060200190929190803590602001909291908035906020019092919080359060200190929190505050611ba2565b005b34801561042d57600080fd5b5061044c60048036038101908080359060200190929190505050611e35565b6040518087815260200186815260200185815260200184151515158152602001838152602001828152602001965050505050505060405180910390f35b34801561049557600080fd5b506104ca600480360381019080803573ffffffffffffffffffffffffffffffffffffffff1690602001909291905050506123b0565b604051808215151515815260200191505060405180910390f35b3480156104f057600080fd5b5061050f60048036038101908080359060200190929190505050612465565b604051808215151515815260200191505060405180910390f35b34801561053557600080fd5b50610576600480360381019080803573ffffffffffffffffffffffffffffffffffffffff16906020019092919080351515906020019092919050505061255e565b005b34801561058457600080fd5b506105a360048036038101908080359060200190929190505050612651565b005b3480156105b157600080fd5b506105d060048036038101908080359060200190929190505050612850565b604051808215151515815260200191505060405180910390f35b3480156105f657600080fd5b5061061560048036038101908080359060200190929190505050612872565b604051808215151515815260200191505060405180910390f35b600080600061063d336123b0565b151561064857600080fd5b600015156000809054906101000a900460ff16151514151561066957600080fd5b6000861415151561067957600080fd5b6012861115151561068957600080fd5b6000841415151561069957600080fd5b600085141515156106a957600080fd5b600260009054906101000a900473ffffffffffffffffffffffffffffffffffffffff1673ffffffffffffffffffffffffffffffffffffffff16636435bb736040518163ffffffff167c01000000000000000000000000000000000000000000000000000000000281526004018080602001828103825260098152602001807f6f776e6572736869700000000000000000000000000000000000000000000000815250602001915050602060405180830381600087803b15801561076b57600080fd5b505af115801561077f573d6000803e3d6000fd5b505050506040513d602081101561079557600080fd5b81019080805190602001909291905050509250600073ffffffffffffffffffffffffffffffffffffffff168373ffffffffffffffffffffffffffffffffffffffff16141515156107e457600080fd5b8291506109036001600260009054906101000a900473ffffffffffffffffffffffffffffffffffffffff1673ffffffffffffffffffffffffffffffffffffffff1663bd02d0f560405180807f7061636b6d616e616765722e7061636b2e6c656e677468000000000000000000815250601701905060405180910390206040518263ffffffff167c0100000000000000000000000000000000000000000000000000000000028152600401808260001916600019168152602001915050602060405180830381600087803b1580156108ba57600080fd5b505af11580156108ce573d6000803e3d6000fd5b505050506040513d60208110156108e457600080fd5b8101908080519060200190929190505050612a5490919063ffffffff16565b90507001000000000000000000000000000000008110151561092457600080fd5b600260009054906101000a900473ffffffffffffffffffffffffffffffffffffffff1673ffffffffffffffffffffffffffffffffffffffff1663e2a4853a60405180807f7061636b6d616e616765722e7061636b2e6c656e67746800000000000000000081525060170190506040518091039020836040518363ffffffff167c010000000000000000000000000000000000000000000000000000000002815260040180836000191660001916815260200182815260200192505050600060405180830381600087803b1580156109fa57600080fd5b505af1158015610a0e573d6000803e3d6000fd5b50505050600260009054906101000a900473ffffffffffffffffffffffffffffffffffffffff1673ffffffffffffffffffffffffffffffffffffffff1663e2a4853a610a5983612a70565b886040518363ffffffff167c010000000000000000000000000000000000000000000000000000000002815260040180836000191660001916815260200182815260200192505050600060405180830381600087803b158015610abb57600080fd5b505af1158015610acf573d6000803e3d6000fd5b50505050600260009054906101000a900473ffffffffffffffffffffffffffffffffffffffff1673ffffffffffffffffffffffffffffffffffffffff1663e2a4853a610b1a83612b23565b60006040518363ffffffff167c010000000000000000000000000000000000000000000000000000000002815260040180836000191660001916815260200182815260200192505050600060405180830381600087803b158015610b7d57600080fd5b505af1158015610b91573d6000803e3d6000fd5b50505050600260009054906101000a900473ffffffffffffffffffffffffffffffffffffffff1673ffffffffffffffffffffffffffffffffffffffff1663e2a4853a610bdc83612bd6565b866040518363ffffffff167c010000000000000000000000000000000000000000000000000000000002815260040180836000191660001916815260200182815260200192505050600060405180830381600087803b158015610c3e57600080fd5b505af1158015610c52573d6000803e3d6000fd5b50505050600260009054906101000a900473ffffffffffffffffffffffffffffffffffffffff1673ffffffffffffffffffffffffffffffffffffffff1663e2a4853a610c9d83612c89565b876040518363ffffffff167c010000000000000000000000000000000000000000000000000000000002815260040180836000191660001916815260200182815260200192505050600060405180830381600087803b158015610cff57600080fd5b505af1158015610d13573d6000803e3d6000fd5b50505050600260009054906101000a900473ffffffffffffffffffffffffffffffffffffffff1673ffffffffffffffffffffffffffffffffffffffff1663abfdcced610d5e83612d3c565b60006040518363ffffffff167c01000000000000000000000000000000000000000000000000000000000281526004018083600019166000191681526020018215151515815260200192505050600060405180830381600087803b158015610dc557600080fd5b505af1158015610dd9573d6000803e3d6000fd5b505050508173ffffffffffffffffffffffffffffffffffffffff1663dbce05ae33836040518363ffffffff167c0100000000000000000000000000000000000000000000000000000000028152600401808373ffffffffffffffffffffffffffffffffffffffff1673ffffffffffffffffffffffffffffffffffffffff16815260200182815260200192505050600060405180830381600087803b158015610e8057600080fd5b505af1158015610e94573d6000803e3d6000fd5b505050507ff0f8877a77c2a0e5fb7fb0a889e4c1a45e387957af80c9fc8a9e7f372a0d6e3d816040518082815260200191505060405180910390a1505050505050565b600080610ee3336123b0565b1515610eee57600080fd5b600015156000809054906101000a900460ff161515141515610f0f57600080fd5b87879050915081868690501015610f27578585905091505b81848490501015610f39578383905091505b600e8211151515610f4957600080fd5b600090505b81811015610fa857610f9d8888838181101515610f6757fe5b905060200201358787848181101515610f7c57fe5b905060200201358686858181101515610f9157fe5b9050602002013561062f565b600181019050610f4e565b5050505050505050565b600060019054906101000a900473ffffffffffffffffffffffffffffffffffffffff1681565b610fe1336123b0565b1515610fec57600080fd5b600015156000809054906101000a900460ff16151514151561100d57600080fd5b61101681612465565b15151561102257600080fd5b6000600260009054906101000a900473ffffffffffffffffffffffffffffffffffffffff1673ffffffffffffffffffffffffffffffffffffffff1663bd02d0f561106b84612a70565b6040518263ffffffff167c0100000000000000000000000000000000000000000000000000000000028152600401808260001916600019168152602001915050602060405180830381600087803b1580156110c557600080fd5b505af11580156110d9573d6000803e3d6000fd5b505050506040513d60208110156110ef57600080fd5b81019080805190602001909291905050501415151561110d57600080fd5b6000600260009054906101000a900473ffffffffffffffffffffffffffffffffffffffff1673ffffffffffffffffffffffffffffffffffffffff1663bd02d0f561115684612bd6565b6040518263ffffffff167c0100000000000000000000000000000000000000000000000000000000028152600401808260001916600019168152602001915050602060405180830381600087803b1580156111b057600080fd5b505af11580156111c4573d6000803e3d6000fd5b505050506040513d60208110156111da57600080fd5b8101908080519060200190929190505050141515156111f857600080fd5b6000600260009054906101000a900473ffffffffffffffffffffffffffffffffffffffff1673ffffffffffffffffffffffffffffffffffffffff1663bd02d0f561124184612b23565b6040518263ffffffff167c0100000000000000000000000000000000000000000000000000000000028152600401808260001916600019168152602001915050602060405180830381600087803b15801561129b57600080fd5b505af11580156112af573d6000803e3d6000fd5b505050506040513d60208110156112c557600080fd5b81019080805190602001909291905050501415156112e257600080fd5b600260009054906101000a900473ffffffffffffffffffffffffffffffffffffffff1673ffffffffffffffffffffffffffffffffffffffff1663abfdcced61132983612d3c565b60016040518363ffffffff167c01000000000000000000000000000000000000000000000000000000000281526004018083600019166000191681526020018215151515815260200192505050600060405180830381600087803b15801561139057600080fd5b505af11580156113a4573d6000803e3d6000fd5b5050505050565b600060019054906101000a900473ffffffffffffffffffffffffffffffffffffffff1673ffffffffffffffffffffffffffffffffffffffff163373ffffffffffffffffffffffffffffffffffffffff1614151561140757600080fd5b600015156000809054906101000a900460ff16151514151561142857600080fd5b61143182612850565b151561143c57600080fd5b600260009054906101000a900473ffffffffffffffffffffffffffffffffffffffff1673ffffffffffffffffffffffffffffffffffffffff1663e2a4853a61148384612bd6565b836040518363ffffffff167c010000000000000000000000000000000000000000000000000000000002815260040180836000191660001916815260200182815260200192505050600060405180830381600087803b1580156114e557600080fd5b505af11580156114f9573d6000803e3d6000fd5b505050505050565b600060019054906101000a900473ffffffffffffffffffffffffffffffffffffffff1673ffffffffffffffffffffffffffffffffffffffff163373ffffffffffffffffffffffffffffffffffffffff1614151561155d57600080fd5b600073ffffffffffffffffffffffffffffffffffffffff168173ffffffffffffffffffffffffffffffffffffffff161415151561159957600080fd5b80600060016101000a81548173ffffffffffffffffffffffffffffffffffffffff021916908373ffffffffffffffffffffffffffffffffffffffff16021790555050565b600060019054906101000a900473ffffffffffffffffffffffffffffffffffffffff1673ffffffffffffffffffffffffffffffffffffffff163373ffffffffffffffffffffffffffffffffffffffff1614151561163957600080fd5b6000809054906101000a900460ff16151561165357600080fd5b60008060006101000a81548160ff0219169083151502179055507f7805862f689e2f13df9f062ff482ad3ad112aca9e0847911ed832e158c525b3360405160405180910390a1565b600080600260009054906101000a900473ffffffffffffffffffffffffffffffffffffffff1673ffffffffffffffffffffffffffffffffffffffff1663bd02d0f560405180807f7061636b6d616e616765722e7061636b2e6c656e677468000000000000000000815250601701905060405180910390206040518263ffffffff167c0100000000000000000000000000000000000000000000000000000000028152600401808260001916600019168152602001915050602060405180830381600087803b15801561176c57600080fd5b505af1158015611780573d6000803e3d6000fd5b505050506040513d602081101561179657600080fd5b81019080805190602001909291905050509050700100000000000000000000000000000000811015156117c857600080fd5b8091505090565b6117d8336123b0565b15156117e357600080fd5b600015156000809054906101000a900460ff16151514151561180457600080fd5b61180d82612465565b15151561181957600080fd5b600260009054906101000a900473ffffffffffffffffffffffffffffffffffffffff1673ffffffffffffffffffffffffffffffffffffffff1663e2a4853a61186084612a70565b836040518363ffffffff167c010000000000000000000000000000000000000000000000000000000002815260040180836000191660001916815260200182815260200192505050600060405180830381600087803b1580156118c257600080fd5b505af11580156118d6573d6000803e3d6000fd5b505050505050565b6000809054906101000a900460ff1681565b600060019054906101000a900473ffffffffffffffffffffffffffffffffffffffff1673ffffffffffffffffffffffffffffffffffffffff163373ffffffffffffffffffffffffffffffffffffffff1614151561194c57600080fd5b600060019054906101000a900473ffffffffffffffffffffffffffffffffffffffff1673ffffffffffffffffffffffffffffffffffffffff166108fc3073ffffffffffffffffffffffffffffffffffffffff16319081150290604051600060405180830381858888f193505050501580156119cb573d6000803e3d6000fd5b50565b6119d7336123b0565b15156119e257600080fd5b600015156000809054906101000a900460ff161515141515611a0357600080fd5b611a0c82612465565b151515611a1857600080fd5b600260009054906101000a900473ffffffffffffffffffffffffffffffffffffffff1673ffffffffffffffffffffffffffffffffffffffff1663e2a4853a611a5f84612c89565b836040518363ffffffff167c010000000000000000000000000000000000000000000000000000000002815260040180836000191660001916815260200182815260200192505050600060405180830381600087803b158015611ac157600080fd5b505af1158015611ad5573d6000803e3d6000fd5b505050505050565b600060019054906101000a900473ffffffffffffffffffffffffffffffffffffffff1673ffffffffffffffffffffffffffffffffffffffff163373ffffffffffffffffffffffffffffffffffffffff16141515611b3957600080fd5b600015156000809054906101000a900460ff161515141515611b5a57600080fd5b60016000806101000a81548160ff0219169083151502179055507f6985a02210a168e66602d3235cb6db0e70f92b3ba4d376a33c0f3d9434bff62560405160405180910390a1565b611bab336123b0565b1515611bb657600080fd5b600015156000809054906101000a900460ff161515141515611bd757600080fd5b611be084612465565b151515611bec57600080fd5b600260009054906101000a900473ffffffffffffffffffffffffffffffffffffffff1673ffffffffffffffffffffffffffffffffffffffff1663e2a4853a611c3386612a70565b856040518363ffffffff167c010000000000000000000000000000000000000000000000000000000002815260040180836000191660001916815260200182815260200192505050600060405180830381600087803b158015611c9557600080fd5b505af1158015611ca9573d6000803e3d6000fd5b50505050600260009054906101000a900473ffffffffffffffffffffffffffffffffffffffff1673ffffffffffffffffffffffffffffffffffffffff1663e2a4853a611cf486612c89565b846040518363ffffffff167c010000000000000000000000000000000000000000000000000000000002815260040180836000191660001916815260200182815260200192505050600060405180830381600087803b158015611d5657600080fd5b505af1158015611d6a573d6000803e3d6000fd5b50505050600260009054906101000a900473ffffffffffffffffffffffffffffffffffffffff1673ffffffffffffffffffffffffffffffffffffffff1663e2a4853a611db586612bd6565b836040518363ffffffff167c010000000000000000000000000000000000000000000000000000000002815260040180836000191660001916815260200182815260200192505050600060405180830381600087803b158015611e1757600080fd5b505af1158015611e2b573d6000803e3d6000fd5b5050505050505050565b600080600080600080600080600080600080611e508d612850565b1515611e5b57600080fd5b600260009054906101000a900473ffffffffffffffffffffffffffffffffffffffff1673ffffffffffffffffffffffffffffffffffffffff1663bd02d0f5611ea28f612a70565b6040518263ffffffff167c0100000000000000000000000000000000000000000000000000000000028152600401808260001916600019168152602001915050602060405180830381600087803b158015611efc57600080fd5b505af1158015611f10573d6000803e3d6000fd5b505050506040513d6020811015611f2657600080fd5b81019080805190602001909291905050509550600260009054906101000a900473ffffffffffffffffffffffffffffffffffffffff1673ffffffffffffffffffffffffffffffffffffffff1663bd02d0f5611f808f612b23565b6040518263ffffffff167c0100000000000000000000000000000000000000000000000000000000028152600401808260001916600019168152602001915050602060405180830381600087803b158015611fda57600080fd5b505af1158015611fee573d6000803e3d6000fd5b505050506040513d602081101561200457600080fd5b81019080805190602001909291905050509450600260009054906101000a900473ffffffffffffffffffffffffffffffffffffffff1673ffffffffffffffffffffffffffffffffffffffff1663bd02d0f561205e8f612bd6565b6040518263ffffffff167c0100000000000000000000000000000000000000000000000000000000028152600401808260001916600019168152602001915050602060405180830381600087803b1580156120b857600080fd5b505af11580156120cc573d6000803e3d6000fd5b505050506040513d60208110156120e257600080fd5b81019080805190602001909291905050509350600260009054906101000a900473ffffffffffffffffffffffffffffffffffffffff1673ffffffffffffffffffffffffffffffffffffffff1663bd02d0f561213c8f612c89565b6040518263ffffffff167c0100000000000000000000000000000000000000000000000000000000028152600401808260001916600019168152602001915050602060405180830381600087803b15801561219657600080fd5b505af11580156121aa573d6000803e3d6000fd5b505050506040513d60208110156121c057600080fd5b81019080805190602001909291905050509250600260009054906101000a900473ffffffffffffffffffffffffffffffffffffffff1673ffffffffffffffffffffffffffffffffffffffff1663bd02d0f561221a8f612def565b6040518263ffffffff167c0100000000000000000000000000000000000000000000000000000000028152600401808260001916600019168152602001915050602060405180830381600087803b15801561227457600080fd5b505af1158015612288573d6000803e3d6000fd5b505050506040513d602081101561229e57600080fd5b81019080805190602001909291905050509150600260009054906101000a900473ffffffffffffffffffffffffffffffffffffffff1673ffffffffffffffffffffffffffffffffffffffff16637ae1cfca6122f88f612d3c565b6040518263ffffffff167c0100000000000000000000000000000000000000000000000000000000028152600401808260001916600019168152602001915050602060405180830381600087803b15801561235257600080fd5b505af1158015612366573d6000803e3d6000fd5b505050506040513d602081101561237c57600080fd5b810190808051906020019092919050505090508585858386869b509b509b509b509b509b5050505050505091939550919395565b60008060019054906101000a900473ffffffffffffffffffffffffffffffffffffffff1673ffffffffffffffffffffffffffffffffffffffff168273ffffffffffffffffffffffffffffffffffffffff1614156124105760019050612460565b600160008373ffffffffffffffffffffffffffffffffffffffff1673ffffffffffffffffffffffffffffffffffffffff16815260200190815260200160002060009054906101000a900460ff1690505b919050565b600061247082612850565b151561247b57600080fd5b600260009054906101000a900473ffffffffffffffffffffffffffffffffffffffff1673ffffffffffffffffffffffffffffffffffffffff16637ae1cfca6124c284612d3c565b6040518263ffffffff167c0100000000000000000000000000000000000000000000000000000000028152600401808260001916600019168152602001915050602060405180830381600087803b15801561251c57600080fd5b505af1158015612530573d6000803e3d6000fd5b505050506040513d602081101561254657600080fd5b81019080805190602001909291905050509050919050565b600060019054906101000a900473ffffffffffffffffffffffffffffffffffffffff1673ffffffffffffffffffffffffffffffffffffffff163373ffffffffffffffffffffffffffffffffffffffff161415156125ba57600080fd5b600073ffffffffffffffffffffffffffffffffffffffff168273ffffffffffffffffffffffffffffffffffffffff16141515156125f657600080fd5b80600160008473ffffffffffffffffffffffffffffffffffffffff1673ffffffffffffffffffffffffffffffffffffffff16815260200190815260200160002060006101000a81548160ff0219169083151502179055505050565b60008061265d336123b0565b151561266857600080fd5b600015156000809054906101000a900460ff16151514151561268957600080fd5b61269283612872565b15151561269e57600080fd5b6126a783612b23565b9150600260009054906101000a900473ffffffffffffffffffffffffffffffffffffffff1673ffffffffffffffffffffffffffffffffffffffff1663bd02d0f5836040518263ffffffff167c0100000000000000000000000000000000000000000000000000000000028152600401808260001916600019168152602001915050602060405180830381600087803b15801561274257600080fd5b505af1158015612756573d6000803e3d6000fd5b505050506040513d602081101561276c57600080fd5b81019080805190602001909291905050509050600260009054906101000a900473ffffffffffffffffffffffffffffffffffffffff1673ffffffffffffffffffffffffffffffffffffffff1663e2a4853a836127d2600185612a5490919063ffffffff16565b6040518363ffffffff167c010000000000000000000000000000000000000000000000000000000002815260040180836000191660001916815260200182815260200192505050600060405180830381600087803b15801561283357600080fd5b505af1158015612847573d6000803e3d6000fd5b50505050505050565b6000808211151561286057600080fd5b8161286961169b565b10159050919050565b600080600061288084612465565b151561288b57600080fd5b600260009054906101000a900473ffffffffffffffffffffffffffffffffffffffff1673ffffffffffffffffffffffffffffffffffffffff1663bd02d0f56128d286612bd6565b6040518263ffffffff167c0100000000000000000000000000000000000000000000000000000000028152600401808260001916600019168152602001915050602060405180830381600087803b15801561292c57600080fd5b505af1158015612940573d6000803e3d6000fd5b505050506040513d602081101561295657600080fd5b81019080805190602001909291905050509150600260009054906101000a900473ffffffffffffffffffffffffffffffffffffffff1673ffffffffffffffffffffffffffffffffffffffff1663bd02d0f56129b086612b23565b6040518263ffffffff167c0100000000000000000000000000000000000000000000000000000000028152600401808260001916600019168152602001915050602060405180830381600087803b158015612a0a57600080fd5b505af1158015612a1e573d6000803e3d6000fd5b505050506040513d6020811015612a3457600080fd5b810190808051906020019092919050505090508181101592505050919050565b60008183019050828110151515612a6757fe5b80905092915050565b60008160405160200180807f7061636b6d616e616765722e7061636b2e73697a6500000000000000000000008152506015018281526020019150506040516020818303038152906040526040518082805190602001908083835b602083101515612aef5780518252602082019150602081019050602083039250612aca565b6001836020036101000a03801982511681845116808217855250505050505090500191505060405180910390209050919050565b60008160405160200180807f7061636b6d616e616765722e7061636b2e6d696e7465640000000000000000008152506017018281526020019150506040516020818303038152906040526040518082805190602001908083835b602083101515612ba25780518252602082019150602081019050602083039250612b7d565b6001836020036101000a03801982511681845116808217855250505050505090500191505060405180910390209050919050565b60008160405160200180807f7061636b6d616e616765722e7061636b2e73746f636b000000000000000000008152506016018281526020019150506040516020818303038152906040526040518082805190602001908083835b602083101515612c555780518252602082019150602081019050602083039250612c30565b6001836020036101000a03801982511681845116808217855250505050505090500191505060405180910390209050919050565b60008160405160200180807f7061636b6d616e616765722e7061636b2e7072696365000000000000000000008152506016018281526020019150506040516020818303038152906040526040518082805190602001908083835b602083101515612d085780518252602082019150602081019050602083039250612ce3565b6001836020036101000a03801982511681845116808217855250505050505090500191505060405180910390209050919050565b60008160405160200180807f7061636b6d616e616765722e7061636b2e72656c6561736564000000000000008152506019018281526020019150506040516020818303038152906040526040518082805190602001908083835b602083101515612dbb5780518252602082019150602081019050602083039250612d96565b6001836020036101000a03801982511681845116808217855250505050505090500191505060405180910390209050919050565b60008160405160200180807f7061636b6d616e616765722e7061636b2e6974656d6c656e00000000000000008152506018018281526020019150506040516020818303038152906040526040518082805190602001908083835b602083101515612e6e5780518252602082019150602081019050602083039250612e49565b6001836020036101000a038019825116818451168082178552505050505050905001915050604051809103902090509190505600a165627a7a7230582029b0f8eb1f8c196a1ac71b698ae4101a05c33db9012b0641548c58e001fa79420029",
  "source": "pragma solidity 0.4.24;\r\n\r\nimport \"openzeppelin-solidity/contracts/math/SafeMath.sol\";\r\nimport \"./AccessControl.sol\";\r\nimport \"./ItemManager.sol\";\r\n\r\n/**\r\n * @title PackManager\r\n * Manages pack definitions\r\n */\r\ncontract PackManager is AccessControl {\r\n  using SafeMath for uint256;\r\n\r\n  // Event triggered when a pack is created\r\n  event PackCreated(uint256 packId);\r\n\r\n  // instance of main storage\r\n  MainStorage private mainStorage;\r\n\r\n  // have a maximum so we don't run out of gas when buying a pack\r\n  uint256 constant MAX_PACK_SIZE = 18;\r\n\r\n  // hash for getting pack length\r\n  bytes32 constant HASH_PACK_LENGTH = keccak256(\"packmanager.pack.length\");\r\n\r\n  // the maximum number of pack definitions allowed\r\n  uint256 constant MAX_ID = 2 ** 128;\r\n\r\n  /**\r\n   * @dev Constructor\r\n   */\r\n  constructor(address _storageAddress) public {\r\n    mainStorage = MainStorage(_storageAddress);\r\n  }\r\n\r\n  /**\r\n   * @dev Create a pack\r\n   * @param _size The number of items in the pack\r\n   * @param _price The selling price of the pack in wei\r\n   * @param _stock The number of packs in stock\r\n   */\r\n  function createPack(uint256 _size, uint256 _price, uint256 _stock)\r\n    public\r\n    canAccess\r\n    whenNotPaused\r\n  {\r\n    require(_size != 0);\r\n    require(_size <= MAX_PACK_SIZE);\r\n    require(_stock != 0);\r\n    require(_price != 0);\r\n\r\n    address itAddress = mainStorage.getContractByName(\"ownership\");\r\n    require(itAddress != address(0));\r\n    Ownership token = Ownership(itAddress);\r\n\r\n    uint256 packId = mainStorage.getUint(HASH_PACK_LENGTH).add(1);\r\n    require(packId < MAX_ID);\r\n    mainStorage.setUint(HASH_PACK_LENGTH, packId);\r\n\r\n    mainStorage.setUint(_hashPackSize(packId), _size);\r\n    mainStorage.setUint(_hashPackMinted(packId), 0);\r\n    mainStorage.setUint(_hashPackStock(packId), _stock);\r\n    mainStorage.setUint(_hashPackPrice(packId), _price);\r\n    mainStorage.setBool(_hashPackReleased(packId), false);\r\n\r\n    token.mintPackDefTo(msg.sender, packId);\r\n\r\n    emit PackCreated(packId);\r\n  }\r\n\r\n  /**\r\n   * @dev Get the number of packs already defined\r\n   */\r\n  function getPackCount()\r\n    public\r\n    view\r\n    returns (uint256)\r\n  {\r\n    uint256 len = mainStorage.getUint(HASH_PACK_LENGTH);\r\n    require(len < MAX_ID);\r\n    return len;\r\n  }\r\n\r\n\r\n  /**\r\n   * @dev Create multiple packs\r\n   * @param _sizes array of sizes for the packs\r\n   * @param _price array of prices for the packs\r\n   * @param _stocks array of stocks for the packs\r\n   */\r\n  function createPacks(uint256[] _sizes, uint256[] _price, uint256[] _stocks)\r\n    external\r\n    canAccess\r\n    whenNotPaused\r\n  {\r\n    // get the lowest length\r\n    uint256 len = _sizes.length;\r\n    if (_price.length < len) len = _price.length;\r\n    if (_stocks.length < len) len = _stocks.length;\r\n\r\n    // so that we dont exceed 4M gas\r\n    require(len <= 14);\r\n\r\n    for (uint256 i=0; i<len; i=i+1) {\r\n      createPack(_sizes[i], _price[i], _stocks[i]);\r\n    }\r\n  }\r\n\r\n  /**\r\n   * @dev Update the pack info\r\n   * @param _packId The pack id\r\n   * @param _size The number of items in the pack\r\n   * @param _price The selling price of the pack in wei\r\n   * @param _stock The number of packs in stock\r\n   */\r\n  function updatePack(\r\n    uint256 _packId,\r\n    uint256 _size,\r\n    uint256 _price,\r\n    uint256 _stock\r\n  )\r\n    external\r\n    canAccess\r\n    whenNotPaused\r\n  {\r\n    require(!isPackReleased(_packId));\r\n    mainStorage.setUint(_hashPackSize(_packId), _size);\r\n    mainStorage.setUint(_hashPackPrice(_packId), _price);\r\n    mainStorage.setUint(_hashPackStock(_packId), _stock);\r\n  }\r\n\r\n  /**\r\n   * @dev Change the pack size\r\n   * @param _packId the pack id to modify\r\n   * @param _packSize the new size\r\n   */\r\n  function setPackSize(uint256 _packId, uint256 _packSize)\r\n    external\r\n    canAccess\r\n    whenNotPaused\r\n  {\r\n    require(!isPackReleased(_packId));\r\n    mainStorage.setUint(_hashPackSize(_packId), _packSize);\r\n  }\r\n\r\n  /**\r\n   * @dev check if a pack is released\r\n   * @param _packId the pack id\r\n   */\r\n  function isPackReleased(uint256 _packId)\r\n    public\r\n    view\r\n    returns (bool)\r\n  {\r\n    require(packExists(_packId));\r\n    return mainStorage.getBool(_hashPackReleased(_packId));\r\n  }\r\n\r\n  /**\r\n   * @dev check if a pack is sold out\r\n   * @param _packId the pack id\r\n   */\r\n  function isPackSoldOut(uint256 _packId)\r\n    public\r\n    view\r\n    returns (bool)\r\n  {\r\n    require(isPackReleased(_packId));\r\n\r\n    uint256 stock  = mainStorage.getUint(_hashPackStock(_packId));\r\n    uint256 minted = mainStorage.getUint(_hashPackMinted(_packId));\r\n    return minted >= stock;\r\n  }\r\n\r\n  /**\r\n   * @dev check if a pack exists\r\n   * @param _packId the pack id to check\r\n   */\r\n  function packExists(uint256 _packId)\r\n    public\r\n    view\r\n    returns (bool)\r\n  {\r\n    require(_packId > 0);\r\n    return getPackCount() >= _packId;\r\n  }\r\n\r\n  /**\r\n   * @dev Allow setting of the parameter in case we want to increase stock\r\n   *      or stop selling.\r\n   * @param _packId the pack id to modify\r\n   * @param _packStock the new number of stocks\r\n   */\r\n  function setPackStock(uint256 _packId, uint256 _packStock)\r\n    external\r\n    onlyCEO\r\n    whenNotPaused\r\n  {\r\n    require(packExists(_packId));\r\n    mainStorage.setUint(_hashPackStock(_packId), _packStock);\r\n  }\r\n\r\n  /**\r\n   * @dev Set the selling price of the pack\r\n   * @param _packId The pack id\r\n   * @param _packSellingPrice The new selling price\r\n   */\r\n  function setSellingPrice(uint256 _packId, uint256 _packSellingPrice)\r\n    external\r\n    canAccess\r\n    whenNotPaused\r\n  {\r\n    // Don't allow changing price when pack is already released\r\n    require(!isPackReleased(_packId));\r\n    mainStorage.setUint(_hashPackPrice(_packId), _packSellingPrice);\r\n  }\r\n\r\n\r\n  /**\r\n   * @dev when a pack is bought increase minted count\r\n   * @param _packId the pack id\r\n   */\r\n  function mintPack(uint256 _packId)\r\n    external\r\n    canAccess\r\n    whenNotPaused\r\n  {\r\n    require(!isPackSoldOut(_packId));\r\n    bytes32 hash = _hashPackMinted(_packId);\r\n    uint256 minted = mainStorage.getUint(hash);\r\n    mainStorage.setUint(hash, minted.add(1));\r\n  }\r\n\r\n  /**\r\n   * @dev Mark a pack as released\r\n   * @param _packId The pack id to release\r\n   */\r\n  function releasePack(uint256 _packId)\r\n    external\r\n    canAccess\r\n    whenNotPaused\r\n  {\r\n    require(!isPackReleased(_packId));\r\n    require(mainStorage.getUint(_hashPackSize(_packId)) != 0);\r\n    require(mainStorage.getUint(_hashPackStock(_packId)) != 0);\r\n    require(mainStorage.getUint(_hashPackMinted(_packId)) == 0);\r\n\r\n    mainStorage.setBool(_hashPackReleased(_packId), true);\r\n  }\r\n\r\n  /**\r\n   * @dev Get pack information\r\n   * @param _packId the pack ID to get\r\n   */\r\n  function getPack(uint256 _packId)\r\n    external\r\n    view\r\n    returns (\r\n      uint256 _size,        //0\r\n      uint256 _minted,      //1\r\n      uint256 _stock,       //2\r\n      bool    _isReleased,  //3\r\n      uint256 _price,       //4\r\n      uint256 _itemLen      //5\r\n    )\r\n  {\r\n    require(packExists(_packId));\r\n    uint256 size    = mainStorage.getUint(_hashPackSize(_packId));\r\n    uint256 minted  = mainStorage.getUint(_hashPackMinted(_packId));\r\n    uint256 stock   = mainStorage.getUint(_hashPackStock(_packId));\r\n    uint256 price   = mainStorage.getUint(_hashPackPrice(_packId));\r\n    uint256 itemLen = mainStorage.getUint(_hashPackItemLen(_packId));\r\n    bool isReleased = mainStorage.getBool(_hashPackReleased(_packId));\r\n\r\n    return (\r\n      size,\r\n      minted,\r\n      stock,\r\n      isReleased,\r\n      price,\r\n      itemLen\r\n    );\r\n  }\r\n\r\n  /**\r\n   * @dev get the hash for pack size\r\n   */\r\n  function _hashPackSize(uint256 _packId) private pure returns (bytes32) {\r\n    return keccak256(abi.encodePacked(\"packmanager.pack.size\", _packId));\r\n  }\r\n\r\n  /**\r\n   * @dev get the hash for pack minted\r\n   */\r\n  function _hashPackMinted(uint256 _packId) private pure returns (bytes32) {\r\n    return keccak256(abi.encodePacked(\"packmanager.pack.minted\", _packId));\r\n  }\r\n\r\n  /**\r\n   * @dev get the hash for pack stock\r\n   */\r\n  function _hashPackStock(uint256 _packId) private pure returns (bytes32) {\r\n    return keccak256(abi.encodePacked(\"packmanager.pack.stock\", _packId));\r\n  }\r\n\r\n  /**\r\n   * @dev get the hash for pack released\r\n   */\r\n  function _hashPackReleased(uint256 _packId) private pure returns (bytes32) {\r\n    return keccak256(abi.encodePacked(\"packmanager.pack.released\", _packId));\r\n  }\r\n\r\n  /**\r\n   * @dev get the hash for pack price\r\n   */\r\n  function _hashPackPrice(uint256 _packId) private pure returns (bytes32) {\r\n    return keccak256(abi.encodePacked(\"packmanager.pack.price\", _packId));\r\n  }\r\n\r\n  /**\r\n   * @dev get the hash for pack length\r\n   */\r\n  function _hashPackItemLen(uint256 _packId) private pure returns (bytes32) {\r\n    return keccak256(abi.encodePacked(\"packmanager.pack.itemlen\", _packId));\r\n  }\r\n\r\n}\r\n",
  "sourcePath": "/media/sf_Altitude/adc-contracts/contracts/PackManager.sol",
  "compiler": {
    "name": "solc",
    "version": "0.4.24+commit.e67f0147.Emscripten.clang"
  },
  "schemaVersion": "2.0.0",
  "updatedAt": "2018-07-20T14:10:09.369Z"
}