{
  "contractName": "PackItems",
  "abi": [
    {
      "constant": true,
      "inputs": [],
      "name": "ceoAddress",
      "outputs": [
        {
          "name": "",
          "type": "address"
        }
      ],
      "payable": false,
      "stateMutability": "view",
      "type": "function"
    },
    {
      "constant": false,
      "inputs": [
        {
          "name": "_newCEO",
          "type": "address"
        }
      ],
      "name": "setCEO",
      "outputs": [],
      "payable": false,
      "stateMutability": "nonpayable",
      "type": "function"
    },
    {
      "constant": false,
      "inputs": [],
      "name": "unpause",
      "outputs": [],
      "payable": false,
      "stateMutability": "nonpayable",
      "type": "function"
    },
    {
      "constant": true,
      "inputs": [],
      "name": "paused",
      "outputs": [
        {
          "name": "",
          "type": "bool"
        }
      ],
      "payable": false,
      "stateMutability": "view",
      "type": "function"
    },
    {
      "constant": false,
      "inputs": [],
      "name": "withdrawBalance",
      "outputs": [],
      "payable": false,
      "stateMutability": "nonpayable",
      "type": "function"
    },
    {
      "constant": false,
      "inputs": [],
      "name": "pause",
      "outputs": [],
      "payable": false,
      "stateMutability": "nonpayable",
      "type": "function"
    },
    {
      "constant": true,
      "inputs": [
        {
          "name": "_address",
          "type": "address"
        }
      ],
      "name": "hasAccess",
      "outputs": [
        {
          "name": "",
          "type": "bool"
        }
      ],
      "payable": false,
      "stateMutability": "view",
      "type": "function"
    },
    {
      "constant": false,
      "inputs": [
        {
          "name": "_address",
          "type": "address"
        },
        {
          "name": "_isAllowed",
          "type": "bool"
        }
      ],
      "name": "setAccess",
      "outputs": [],
      "payable": false,
      "stateMutability": "nonpayable",
      "type": "function"
    },
    {
      "inputs": [
        {
          "name": "_storageAddress",
          "type": "address"
        }
      ],
      "payable": false,
      "stateMutability": "nonpayable",
      "type": "constructor"
    },
    {
      "payable": true,
      "stateMutability": "payable",
      "type": "fallback"
    },
    {
      "anonymous": false,
      "inputs": [],
      "name": "Pause",
      "type": "event"
    },
    {
      "anonymous": false,
      "inputs": [],
      "name": "Unpause",
      "type": "event"
    },
    {
      "constant": false,
      "inputs": [
        {
          "name": "_packId",
          "type": "uint256"
        },
        {
          "name": "_itemId",
          "type": "uint256"
        },
        {
          "name": "_weight",
          "type": "uint8"
        }
      ],
      "name": "setPackItem",
      "outputs": [],
      "payable": false,
      "stateMutability": "nonpayable",
      "type": "function"
    },
    {
      "constant": true,
      "inputs": [
        {
          "name": "_packId",
          "type": "uint256"
        }
      ],
      "name": "getPackItemLen",
      "outputs": [
        {
          "name": "",
          "type": "uint256"
        }
      ],
      "payable": false,
      "stateMutability": "view",
      "type": "function"
    },
    {
      "constant": true,
      "inputs": [
        {
          "name": "_packId",
          "type": "uint256"
        },
        {
          "name": "_index",
          "type": "uint256"
        }
      ],
      "name": "getPackItemByIndex",
      "outputs": [
        {
          "name": "",
          "type": "uint256"
        },
        {
          "name": "",
          "type": "uint8"
        },
        {
          "name": "",
          "type": "bool"
        }
      ],
      "payable": false,
      "stateMutability": "view",
      "type": "function"
    },
    {
      "constant": true,
      "inputs": [
        {
          "name": "_packId",
          "type": "uint256"
        },
        {
          "name": "_index",
          "type": "uint256"
        }
      ],
      "name": "hashPackItem",
      "outputs": [
        {
          "name": "",
          "type": "bytes32"
        }
      ],
      "payable": false,
      "stateMutability": "pure",
      "type": "function"
    },
    {
      "constant": true,
      "inputs": [
        {
          "name": "_packId",
          "type": "uint256"
        },
        {
          "name": "_itemId",
          "type": "uint256"
        }
      ],
      "name": "hashPackItemIdx",
      "outputs": [
        {
          "name": "",
          "type": "bytes32"
        }
      ],
      "payable": false,
      "stateMutability": "pure",
      "type": "function"
    },
    {
      "constant": true,
      "inputs": [
        {
          "name": "_packId",
          "type": "uint256"
        }
      ],
      "name": "hashPackItemLen",
      "outputs": [
        {
          "name": "",
          "type": "bytes32"
        }
      ],
      "payable": false,
      "stateMutability": "pure",
      "type": "function"
    },
    {
      "constant": true,
      "inputs": [
        {
          "name": "_packed",
          "type": "uint256"
        },
        {
          "name": "_itemId",
          "type": "uint256"
        }
      ],
      "name": "setPackItemId",
      "outputs": [
        {
          "name": "",
          "type": "uint256"
        }
      ],
      "payable": false,
      "stateMutability": "pure",
      "type": "function"
    },
    {
      "constant": true,
      "inputs": [
        {
          "name": "_packed",
          "type": "uint256"
        },
        {
          "name": "_weight",
          "type": "uint8"
        }
      ],
      "name": "setPackItemWt",
      "outputs": [
        {
          "name": "",
          "type": "uint256"
        }
      ],
      "payable": false,
      "stateMutability": "pure",
      "type": "function"
    },
    {
      "constant": true,
      "inputs": [
        {
          "name": "_packed",
          "type": "uint256"
        },
        {
          "name": "_isActive",
          "type": "bool"
        }
      ],
      "name": "setPackItemAct",
      "outputs": [
        {
          "name": "",
          "type": "uint256"
        }
      ],
      "payable": false,
      "stateMutability": "pure",
      "type": "function"
    },
    {
      "constant": true,
      "inputs": [
        {
          "name": "_packed",
          "type": "uint256"
        }
      ],
      "name": "getPackItemId",
      "outputs": [
        {
          "name": "",
          "type": "uint256"
        }
      ],
      "payable": false,
      "stateMutability": "pure",
      "type": "function"
    },
    {
      "constant": true,
      "inputs": [
        {
          "name": "_packed",
          "type": "uint256"
        }
      ],
      "name": "getPackItemWt",
      "outputs": [
        {
          "name": "",
          "type": "uint8"
        }
      ],
      "payable": false,
      "stateMutability": "pure",
      "type": "function"
    },
    {
      "constant": true,
      "inputs": [
        {
          "name": "_packed",
          "type": "uint256"
        }
      ],
      "name": "getPackItemAct",
      "outputs": [
        {
          "name": "",
          "type": "bool"
        }
      ],
      "payable": false,
      "stateMutability": "pure",
      "type": "function"
    },
    {
      "constant": false,
      "inputs": [
        {
          "name": "_packId",
          "type": "uint256"
        },
        {
          "name": "_itemIds",
          "type": "uint256[]"
        },
        {
          "name": "_weights",
          "type": "uint8[]"
        }
      ],
      "name": "setPackItems",
      "outputs": [],
      "payable": false,
      "stateMutability": "nonpayable",
      "type": "function"
    },
    {
      "constant": false,
      "inputs": [
        {
          "name": "_packId",
          "type": "uint256"
        },
        {
          "name": "_itemId",
          "type": "uint256"
        }
      ],
      "name": "removePackItem",
      "outputs": [],
      "payable": false,
      "stateMutability": "nonpayable",
      "type": "function"
    },
    {
      "constant": true,
      "inputs": [
        {
          "name": "_packId",
          "type": "uint256"
        },
        {
          "name": "_itemId",
          "type": "uint256"
        }
      ],
      "name": "getPackItem",
      "outputs": [
        {
          "name": "",
          "type": "uint256"
        },
        {
          "name": "",
          "type": "uint8"
        },
        {
          "name": "",
          "type": "bool"
        }
      ],
      "payable": false,
      "stateMutability": "view",
      "type": "function"
    }
  ],
  "bytecode": "0x608060405260008060006101000a81548160ff02191690831515021790555034801561002a57600080fd5b5060405160208061216a8339810180604052810190808051906020019092919050505033600060016101000a81548173ffffffffffffffffffffffffffffffffffffffff021916908373ffffffffffffffffffffffffffffffffffffffff16021790555080600260006101000a81548173ffffffffffffffffffffffffffffffffffffffff021916908373ffffffffffffffffffffffffffffffffffffffff1602179055505061208b806100df6000396000f300608060405260043610610133576000357c0100000000000000000000000000000000000000000000000000000000900463ffffffff1680630a0f816814610135578063113818191461018c57806318251c01146101d557806327d7874c146102285780632cb30a531461026b5780633f4ba83a146102b2578063449ccfc7146102c957806357fe23f2146103005780635b6170cf146103415780635c975abb1461039e5780635fd8c710146103cd57806373de9ea8146103e45780638456cb591461042957806389227cdd1461044057806395a078e81461048e5780639ee32dd1146104e9578063a92542f114610534578063b20487bd14610575578063b257044a146105d8578063b84614a514610625578063c02815ae14610674578063dfeac7da146106b8578063e6f284551461070b575b005b34801561014157600080fd5b5061014a61076e565b604051808273ffffffffffffffffffffffffffffffffffffffff1673ffffffffffffffffffffffffffffffffffffffff16815260200191505060405180910390f35b34801561019857600080fd5b506101b760048036038101908080359060200190929190505050610794565b60405180826000191660001916815260200191505060405180910390f35b3480156101e157600080fd5b5061020a6004803603810190808035906020019092919080359060200190929190505050610847565b60405180826000191660001916815260200191505060405180910390f35b34801561023457600080fd5b50610269600480360381019080803573ffffffffffffffffffffffffffffffffffffffff169060200190929190505050610903565b005b34801561027757600080fd5b50610296600480360381019080803590602001909291905050506109df565b604051808260ff1660ff16815260200191505060405180910390f35b3480156102be57600080fd5b506102c7610a04565b005b3480156102d557600080fd5b506102fe6004803603810190808035906020019092919080359060200190929190505050610ac2565b005b34801561030c57600080fd5b5061032b60048036038101908080359060200190929190505050610db3565b6040518082815260200191505060405180910390f35b34801561034d57600080fd5b5061039c60048036038101908080359060200190929190803590602001908201803590602001919091929391929390803590602001908201803590602001919091929391929390505050610e98565b005b3480156103aa57600080fd5b506103b3610f4f565b604051808215151515815260200191505060405180910390f35b3480156103d957600080fd5b506103e2610f61565b005b3480156103f057600080fd5b5061040f6004803603810190808035906020019092919050505061103f565b604051808215151515815260200191505060405180910390f35b34801561043557600080fd5b5061043e611079565b005b34801561044c57600080fd5b5061047860048036038101908080359060200190929190803560ff16906020019092919050505061113e565b6040518082815260200191505060405180910390f35b34801561049a57600080fd5b506104cf600480360381019080803573ffffffffffffffffffffffffffffffffffffffff16906020019092919050505061116e565b604051808215151515815260200191505060405180910390f35b3480156104f557600080fd5b5061051e6004803603810190808035906020019092919080359060200190929190505050611223565b6040518082815260200191505060405180910390f35b34801561054057600080fd5b5061055f60048036038101908080359060200190929190505050611255565b6040518082815260200191505060405180910390f35b34801561058157600080fd5b506105aa6004803603810190808035906020019092919080359060200190929190505050611271565b604051808481526020018360ff1660ff16815260200182151515158152602001935050505060405180910390f35b3480156105e457600080fd5b5061060f6004803603810190808035906020019092919080351515906020019092919050505061137f565b6040518082815260200191505060405180910390f35b34801561063157600080fd5b50610672600480360381019080803573ffffffffffffffffffffffffffffffffffffffff1690602001909291908035151590602001909291905050506113b9565b005b34801561068057600080fd5b506106b66004803603810190808035906020019092919080359060200190929190803560ff1690602001909291905050506114ac565b005b3480156106c457600080fd5b506106ed6004803603810190808035906020019092919080359060200190929190505050611b61565b60405180826000191660001916815260200191505060405180910390f35b34801561071757600080fd5b506107406004803603810190808035906020019092919080359060200190929190505050611c1d565b604051808481526020018360ff1660ff16815260200182151515158152602001935050505060405180910390f35b600060019054906101000a900473ffffffffffffffffffffffffffffffffffffffff1681565b60008160405160200180807f7061636b6d616e616765722e7061636b2e6974656d6c656e00000000000000008152506018018281526020019150506040516020818303038152906040526040518082805190602001908083835b60208310151561081357805182526020820191506020810190506020830392506107ee565b6001836020036101000a03801982511681845116808217855250505050505090500191505060405180910390209050919050565b6000828260405160200180807f7061636b6d616e616765722e7061636b2e6974656d6964780000000000000000815250601801838152602001828152602001925050506040516020818303038152906040526040518082805190602001908083835b6020831015156108ce57805182526020820191506020810190506020830392506108a9565b6001836020036101000a0380198251168184511680821785525050505050509050019150506040518091039020905092915050565b600060019054906101000a900473ffffffffffffffffffffffffffffffffffffffff1673ffffffffffffffffffffffffffffffffffffffff163373ffffffffffffffffffffffffffffffffffffffff1614151561095f57600080fd5b600073ffffffffffffffffffffffffffffffffffffffff168173ffffffffffffffffffffffffffffffffffffffff161415151561099b57600080fd5b80600060016101000a81548173ffffffffffffffffffffffffffffffffffffffff021916908373ffffffffffffffffffffffffffffffffffffffff16021790555050565b6000608070ff0000000000000000000000000000000083169060020a90049050919050565b600060019054906101000a900473ffffffffffffffffffffffffffffffffffffffff1673ffffffffffffffffffffffffffffffffffffffff163373ffffffffffffffffffffffffffffffffffffffff16141515610a6057600080fd5b6000809054906101000a900460ff161515610a7a57600080fd5b60008060006101000a81548160ff0219169083151502179055507f7805862f689e2f13df9f062ff482ad3ad112aca9e0847911ed832e158c525b3360405160405180910390a1565b6000806000610ad03361116e565b1515610adb57600080fd5b600015156000809054906101000a900460ff161515141515610afc57600080fd5b610b0585611d1a565b1515610b1057600080fd5b610b1a8585611e34565b1515610b2557600080fd5b600260009054906101000a900473ffffffffffffffffffffffffffffffffffffffff1673ffffffffffffffffffffffffffffffffffffffff1663bd02d0f5610b6d8787610847565b6040518263ffffffff167c0100000000000000000000000000000000000000000000000000000000028152600401808260001916600019168152602001915050602060405180830381600087803b158015610bc757600080fd5b505af1158015610bdb573d6000803e3d6000fd5b505050506040513d6020811015610bf157600080fd5b81019080805190602001909291905050509250610c0e8584611b61565b9150600260009054906101000a900473ffffffffffffffffffffffffffffffffffffffff1673ffffffffffffffffffffffffffffffffffffffff1663bd02d0f5836040518263ffffffff167c0100000000000000000000000000000000000000000000000000000000028152600401808260001916600019168152602001915050602060405180830381600087803b158015610ca957600080fd5b505af1158015610cbd573d6000803e3d6000fd5b505050506040513d6020811015610cd357600080fd5b81019080805190602001909291905050509050610cf181600061137f565b9050600260009054906101000a900473ffffffffffffffffffffffffffffffffffffffff1673ffffffffffffffffffffffffffffffffffffffff1663e2a4853a83836040518363ffffffff167c010000000000000000000000000000000000000000000000000000000002815260040180836000191660001916815260200182815260200192505050600060405180830381600087803b158015610d9457600080fd5b505af1158015610da8573d6000803e3d6000fd5b505050505050505050565b6000600260009054906101000a900473ffffffffffffffffffffffffffffffffffffffff1673ffffffffffffffffffffffffffffffffffffffff1663bd02d0f5610dfc84610794565b6040518263ffffffff167c0100000000000000000000000000000000000000000000000000000000028152600401808260001916600019168152602001915050602060405180830381600087803b158015610e5657600080fd5b505af1158015610e6a573d6000803e3d6000fd5b505050506040513d6020811015610e8057600080fd5b81019080805190602001909291905050509050919050565b600080610ea43361116e565b1515610eaf57600080fd5b600015156000809054906101000a900460ff161515141515610ed057600080fd5b85859050915081848490501015610ee8578383905091505b602d8211151515610ef857600080fd5b600090505b81811015610f4657610f3b878787848181101515610f1757fe5b905060200201358686858181101515610f2c57fe5b9050602002013560ff166114ac565b600181019050610efd565b50505050505050565b6000809054906101000a900460ff1681565b600060019054906101000a900473ffffffffffffffffffffffffffffffffffffffff1673ffffffffffffffffffffffffffffffffffffffff163373ffffffffffffffffffffffffffffffffffffffff16141515610fbd57600080fd5b600060019054906101000a900473ffffffffffffffffffffffffffffffffffffffff1673ffffffffffffffffffffffffffffffffffffffff166108fc3073ffffffffffffffffffffffffffffffffffffffff16319081150290604051600060405180830381858888f1935050505015801561103c573d6000803e3d6000fd5b50565b6000600160887101000000000000000000000000000000000084169060020a9004141561106f5760019050611074565b600090505b919050565b600060019054906101000a900473ffffffffffffffffffffffffffffffffffffffff1673ffffffffffffffffffffffffffffffffffffffff163373ffffffffffffffffffffffffffffffffffffffff161415156110d557600080fd5b600015156000809054906101000a900460ff1615151415156110f657600080fd5b60016000806101000a81548160ff0219169083151502179055507f6985a02210a168e66602d3235cb6db0e70f92b3ba4d376a33c0f3d9434bff62560405160405180910390a1565b60008060808360ff169060020a0290508070ff000000000000000000000000000000001985161791505092915050565b60008060019054906101000a900473ffffffffffffffffffffffffffffffffffffffff1673ffffffffffffffffffffffffffffffffffffffff168273ffffffffffffffffffffffffffffffffffffffff1614156111ce576001905061121e565b600160008373ffffffffffffffffffffffffffffffffffffffff1673ffffffffffffffffffffffffffffffffffffffff16815260200190815260200160002060009054906101000a900460ff1690505b919050565b60006fffffffffffffffffffffffffffffffff82166fffffffffffffffffffffffffffffffff19841617905092915050565b60006fffffffffffffffffffffffffffffffff82169050919050565b600080600080600260009054906101000a900473ffffffffffffffffffffffffffffffffffffffff1673ffffffffffffffffffffffffffffffffffffffff1663bd02d0f56112bf8888611b61565b6040518263ffffffff167c0100000000000000000000000000000000000000000000000000000000028152600401808260001916600019168152602001915050602060405180830381600087803b15801561131957600080fd5b505af115801561132d573d6000803e3d6000fd5b505050506040513d602081101561134357600080fd5b8101908080519060200190929190505050905061135f81611255565b611368826109df565b6113718361103f565b935093509350509250925092565b60008060009050821561139857608860019060020a0290505b80710100000000000000000000000000000000001985161791505092915050565b600060019054906101000a900473ffffffffffffffffffffffffffffffffffffffff1673ffffffffffffffffffffffffffffffffffffffff163373ffffffffffffffffffffffffffffffffffffffff1614151561141557600080fd5b600073ffffffffffffffffffffffffffffffffffffffff168273ffffffffffffffffffffffffffffffffffffffff161415151561145157600080fd5b80600160008473ffffffffffffffffffffffffffffffffffffffff1673ffffffffffffffffffffffffffffffffffffffff16815260200190815260200160002060006101000a81548160ff0219169083151502179055505050565b6000806000806114bb3361116e565b15156114c657600080fd5b600015156000809054906101000a900460ff1615151415156114e757600080fd5b6114f087611d1a565b15156114fb57600080fd5b600260009054906101000a900473ffffffffffffffffffffffffffffffffffffffff1673ffffffffffffffffffffffffffffffffffffffff16636435bb736040518163ffffffff167c010000000000000000000000000000000000000000000000000000000002815260040180806020018281038252600b8152602001807f6974656d6d616e61676572000000000000000000000000000000000000000000815250602001915050602060405180830381600087803b1580156115bd57600080fd5b505af11580156115d1573d6000803e3d6000fd5b505050506040513d60208110156115e757600080fd5b81019080805190602001909291905050509350600073ffffffffffffffffffffffffffffffffffffffff168473ffffffffffffffffffffffffffffffffffffffff161415151561163657600080fd5b8373ffffffffffffffffffffffffffffffffffffffff1663843bd641876040518263ffffffff167c010000000000000000000000000000000000000000000000000000000002815260040180828152602001915050602060405180830381600087803b1580156116a557600080fd5b505af11580156116b9573d6000803e3d6000fd5b505050506040513d60208110156116cf57600080fd5b810190808051906020019092919050505015156116eb57600080fd5b600260009054906101000a900473ffffffffffffffffffffffffffffffffffffffff1673ffffffffffffffffffffffffffffffffffffffff1663bd02d0f56117338989610847565b6040518263ffffffff167c0100000000000000000000000000000000000000000000000000000000028152600401808260001916600019168152602001915050602060405180830381600087803b15801561178d57600080fd5b505af11580156117a1573d6000803e3d6000fd5b505050506040513d60208110156117b757600080fd5b810190808051906020019092919050505092506117d48787611e34565b15156119ab576117e387610794565b9150600260009054906101000a900473ffffffffffffffffffffffffffffffffffffffff1673ffffffffffffffffffffffffffffffffffffffff1663bd02d0f5836040518263ffffffff167c0100000000000000000000000000000000000000000000000000000000028152600401808260001916600019168152602001915050602060405180830381600087803b15801561187e57600080fd5b505af1158015611892573d6000803e3d6000fd5b505050506040513d60208110156118a857600080fd5b8101908080519060200190929190505050925060326118d160018561204390919063ffffffff16565b111515156118de57600080fd5b600260009054906101000a900473ffffffffffffffffffffffffffffffffffffffff1673ffffffffffffffffffffffffffffffffffffffff1663e2a4853a8361193160018761204390919063ffffffff16565b6040518363ffffffff167c010000000000000000000000000000000000000000000000000000000002815260040180836000191660001916815260200182815260200192505050600060405180830381600087803b15801561199257600080fd5b505af11580156119a6573d6000803e3d6000fd5b505050505b600260009054906101000a900473ffffffffffffffffffffffffffffffffffffffff1673ffffffffffffffffffffffffffffffffffffffff1663e2a4853a6119f38989610847565b856040518363ffffffff167c010000000000000000000000000000000000000000000000000000000002815260040180836000191660001916815260200182815260200192505050600060405180830381600087803b158015611a5557600080fd5b505af1158015611a69573d6000803e3d6000fd5b5050505060009050611a7b8187611223565b9050611a87818661113e565b9050611a9481600161137f565b9050600260009054906101000a900473ffffffffffffffffffffffffffffffffffffffff1673ffffffffffffffffffffffffffffffffffffffff1663e2a4853a611ade8986611b61565b836040518363ffffffff167c010000000000000000000000000000000000000000000000000000000002815260040180836000191660001916815260200182815260200192505050600060405180830381600087803b158015611b4057600080fd5b505af1158015611b54573d6000803e3d6000fd5b5050505050505050505050565b6000828260405160200180807f7061636b6d616e616765722e7061636b2e6974656d0000000000000000000000815250601501838152602001828152602001925050506040516020818303038152906040526040518082805190602001908083835b602083101515611be85780518252602082019150602081019050602083039250611bc3565b6001836020036101000a0380198251168184511680821785525050505050509050019150506040518091039020905092915050565b600080600080600260009054906101000a900473ffffffffffffffffffffffffffffffffffffffff1673ffffffffffffffffffffffffffffffffffffffff1663bd02d0f5611c6b8888610847565b6040518263ffffffff167c0100000000000000000000000000000000000000000000000000000000028152600401808260001916600019168152602001915050602060405180830381600087803b158015611cc557600080fd5b505af1158015611cd9573d6000803e3d6000fd5b505050506040513d6020811015611cef57600080fd5b81019080805190602001909291905050509050611d0c8682611271565b935093509350509250925092565b600080600260009054906101000a900473ffffffffffffffffffffffffffffffffffffffff1673ffffffffffffffffffffffffffffffffffffffff1663bd02d0f560405180807f7061636b6d616e616765722e7061636b2e6c656e677468000000000000000000815250601701905060405180910390206040518263ffffffff167c0100000000000000000000000000000000000000000000000000000000028152600401808260001916600019168152602001915050602060405180830381600087803b158015611deb57600080fd5b505af1158015611dff573d6000803e3d6000fd5b505050506040513d6020811015611e1557600080fd5b8101908080519060200190929190505050905082811015915050919050565b6000806000806000611e4587610db3565b93506000841415611e595760009450612039565b600260009054906101000a900473ffffffffffffffffffffffffffffffffffffffff1673ffffffffffffffffffffffffffffffffffffffff1663bd02d0f5611ea18989610847565b6040518263ffffffff167c0100000000000000000000000000000000000000000000000000000000028152600401808260001916600019168152602001915050602060405180830381600087803b158015611efb57600080fd5b505af1158015611f0f573d6000803e3d6000fd5b505050506040513d6020811015611f2557600080fd5b81019080805190602001909291905050509250600260009054906101000a900473ffffffffffffffffffffffffffffffffffffffff1673ffffffffffffffffffffffffffffffffffffffff1663bd02d0f5611f808986611b61565b6040518263ffffffff167c0100000000000000000000000000000000000000000000000000000000028152600401808260001916600019168152602001915050602060405180830381600087803b158015611fda57600080fd5b505af1158015611fee573d6000803e3d6000fd5b505050506040513d602081101561200457600080fd5b8101908080519060200190929190505050915061202082611255565b905085811415156120345760009450612039565b600194505b5050505092915050565b6000818301905082811015151561205657fe5b809050929150505600a165627a7a723058204068fedbc219f9e3a9ac9a545a4a7c93b7f626a159b2dfd78e7032eaf9921caa0029",
  "source": "pragma solidity 0.4.24;\n\nimport \"openzeppelin-solidity/contracts/math/SafeMath.sol\";\nimport \"./AccessControl.sol\";\nimport \"./ItemManager.sol\";\n\n/**\n * @title PackItems\n * Manages loot table that will be used in a pack\n */\ncontract PackItems is AccessControl {\n  using SafeMath for uint256;\n\n  // instance of main storage\n  MainStorage private mainStorage;\n\n  // Hash of pack item length\n  bytes32 constant hashPackLength = keccak256(\"packmanager.pack.length\");\n\n  // have a maximum so we don't run out of gas when buying a pack\n  uint256 constant MAX_ITEMS_IN_PACK = 50;\n\n  // Masks to be used for item id, weight and isActive\n  //                                 1 1 1 1 1 1 1 1 1\n  //                                 8 7 6 5 4 3 2 1 0 9 8 7 6 5 4 3 2 1\n  uint256 constant MASK_ITEM_ID = 0x0000ffffffffffffffffffffffffffffffff; //16 bytes - 128 bits\n  uint256 constant MASK_WEIGHT  = 0x00ff00000000000000000000000000000000; // 1 byte  -   8 bits\n  uint256 constant MASK_ACTIVE  = 0x010000000000000000000000000000000000; //             1 bit\n\n  uint256 constant SHIFT_ITEM_ID = 0;\n  uint256 constant SHIFT_WEIGHT = 128;\n  uint256 constant SHIFT_ACTIVE = 136;\n\n  /**\n   * @dev Constructor\n   */\n  constructor(address _storageAddress)\n    public\n  {\n    mainStorage = MainStorage(_storageAddress);\n  }\n\n  /**\n   * @dev Add or update an item within the pack\n   * @param _packId The pack id\n   * @param _itemId The item id to add\n   * @param _weight Weight for drawing a random item, the bigger this value\n   *                the more chance it will be drawn\n   */\n  function setPackItem(uint256 _packId, uint256 _itemId, uint8 _weight)\n    public\n    canAccess\n    whenNotPaused\n  {\n    require(_packExists(_packId));\n\n    address itemManagerAddr = mainStorage.getContractByName(\"itemmanager\");\n    require(itemManagerAddr != address(0));\n    require(ItemManager(itemManagerAddr).itemExists(_itemId));\n\n    uint256 index = mainStorage.getUint(hashPackItemIdx(_packId, _itemId));\n\n    if (!_itemInPack(_packId, _itemId)) {\n      bytes32 hash = hashPackItemLen(_packId);\n      index = mainStorage.getUint(hash);\n      require(index.add(1) <= MAX_ITEMS_IN_PACK);\n      mainStorage.setUint(hash, index.add(1));\n    }\n\n    mainStorage.setUint(hashPackItemIdx(_packId, _itemId), index);\n\n    // pack id, weight and is active into 1 uint256\n    uint256 value = 0;\n    value = setPackItemId(value, _itemId);\n    value = setPackItemWt(value, _weight);\n    value = setPackItemAct(value, true);\n\n    mainStorage.setUint(hashPackItem(_packId, index), value);\n  }\n\n  /**\n   * @dev Get number of items in the pack\n   * @param _packId the pack id\n   * @return the number of items in the pack\n   */\n  function getPackItemLen(uint256 _packId)\n    public\n    view\n    returns (uint256)\n  {\n    return mainStorage.getUint(hashPackItemLen(_packId));\n  }\n\n  /**\n   * @dev Get the pack item details\n   * @param _packId the pack id\n   * @param _index the index in the pack\n   */\n  function getPackItemByIndex(uint256 _packId, uint256 _index)\n    public\n    view\n    returns (uint256, uint8, bool)\n  {\n    uint256 value = mainStorage.getUint(hashPackItem(_packId, _index));\n    return (\n      getPackItemId(value),\n      getPackItemWt(value),\n      getPackItemAct(value)\n    );\n  }\n\n  /**\n   * @dev Get the pack item hash\n   */\n  function hashPackItem(uint256 _packId, uint256 _index)\n    public\n    pure\n    returns (bytes32)\n  {\n    return keccak256(abi.encodePacked(\"packmanager.pack.item\", _packId, _index));\n  }\n\n  /**\n   * @dev Get the pack item index hash\n   */\n  function hashPackItemIdx(uint256 _packId, uint256 _itemId)\n    public\n    pure\n    returns (bytes32)\n  {\n    return keccak256(abi.encodePacked(\"packmanager.pack.itemidx\", _packId, _itemId));\n  }\n\n  /**\n   * @dev Get the pack item length hash, i.e. the number of items\n   *      in the pack loot table\n   */\n  function hashPackItemLen(uint256 _packId)\n    public\n    pure\n    returns (bytes32)\n  {\n    return keccak256(abi.encodePacked(\"packmanager.pack.itemlen\", _packId));\n  }\n\n  /**\n   * @dev Set the item id in the packed uint\n   * @return the new packed uint\n   */\n  function setPackItemId(uint256 _packed, uint256 _itemId)\n    public\n    pure\n    returns (uint256)\n  {\n    return (_packed & ~MASK_ITEM_ID) | (_itemId & MASK_ITEM_ID);\n  }\n\n  /**\n   * @dev Set the item weight in the packed uint\n   * @return the new packed uint\n   */\n  function setPackItemWt(uint256 _packed, uint8 _weight)\n    public\n    pure\n    returns (uint256)\n  {\n    uint256 wt = uint256(_weight) << SHIFT_WEIGHT;\n    return (_packed & ~MASK_WEIGHT) | wt;\n  }\n\n  /**\n   * @dev Set the item is active in the packed uint\n   * @return the new packed uint\n   */\n  function setPackItemAct(uint256 _packed, bool _isActive)\n    public\n    pure\n    returns (uint256)\n  {\n    uint256 act = 0;\n    if (_isActive)\n      act = uint256(1) << SHIFT_ACTIVE;\n\n    return (_packed & ~MASK_ACTIVE) | act;\n  }\n\n  /**\n   * @dev Get the item ID from the packed uint\n   * @return the item ID\n   */\n  function getPackItemId(uint256 _packed)\n    public\n    pure\n    returns (uint256)\n  {\n    return _packed & MASK_ITEM_ID;\n  }\n\n  /**\n   * @dev Get the item weight from the packed uint\n   * @return the item weight\n   */\n  function getPackItemWt(uint256 _packed)\n    public\n    pure\n    returns (uint8)\n  {\n    return uint8((_packed & MASK_WEIGHT) >> SHIFT_WEIGHT);\n  }\n\n  /**\n   * @dev Get the item is active from the packed uint\n   * @return the item is active\n   */\n  function getPackItemAct(uint256 _packed)\n    public\n    pure\n    returns (bool)\n  {\n    if (((_packed & MASK_ACTIVE) >> SHIFT_ACTIVE) == 1)\n      return true;\n    else\n      return false;\n  }\n\n  /**\n   * @dev bulk setting of pack items from an array. reverts if length is > 45\n   */\n  function setPackItems(uint256 _packId, uint256[] _itemIds, uint8[] _weights)\n    external\n    canAccess\n    whenNotPaused\n  {\n    // get lowest length\n    uint256 len = _itemIds.length;\n    if (_weights.length < len) len = _weights.length;\n\n    // require a limit because we could go over 4M gas if more than this limit\n    require(len <= 45);\n\n    for (uint256 i=0; i<len; i=i+1) {\n      setPackItem(_packId, _itemIds[i], _weights[i]);\n    }\n  }\n\n  /**\n   * @dev Remove an item from a pack.\n   * @param _packId The pack id\n   * @param _itemId The item id to remove\n   */\n  function removePackItem(uint256 _packId, uint256 _itemId)\n    external\n    canAccess\n    whenNotPaused\n  {\n    require(_packExists(_packId));\n    require(_itemInPack(_packId, _itemId));\n\n    uint256 index = mainStorage.getUint(hashPackItemIdx(_packId, _itemId));\n    bytes32 hash = hashPackItem(_packId, index);\n    uint256 value = mainStorage.getUint(hash);\n    value = setPackItemAct(value, false);\n    mainStorage.setUint(hash, value);\n  }\n\n  /**\n   * @dev get item id, weight and isActive\n   * @param _packId the pack ID\n   * @param _itemId the item ID in the pack\n   */\n  function getPackItem(uint256 _packId, uint256 _itemId)\n    external\n    view\n    returns (uint256, uint8, bool)\n  {\n    uint256 index = mainStorage.getUint(hashPackItemIdx(_packId, _itemId));\n    return getPackItemByIndex(_packId, index);\n  }\n\n  /**\n   * @dev Check if pack exists or not\n   * @param _packId the pack ID\n   * @return if pack exists\n   */\n  function _packExists(uint256 _packId)\n    private\n    view\n    returns (bool)\n  {\n    uint256 len = mainStorage.getUint(hashPackLength);\n    return len >= _packId;\n  }\n\n\n  /**\n   * @dev Check if item is in the pack loot table\n   * @param _packId the pack ID\n   * @param _itemId the item ID\n   * @return if it exists\n   */\n  function _itemInPack(uint256 _packId, uint256 _itemId)\n    private\n    view\n    returns (bool)\n  {\n    uint256 len = getPackItemLen(_packId);\n    if (len == 0)\n      return false;\n\n    uint256 index = mainStorage.getUint(hashPackItemIdx(_packId, _itemId));\n    uint256 value = mainStorage.getUint(hashPackItem(_packId, index));\n    uint256 id = getPackItemId(value);\n    if (id != _itemId)\n      return false;\n\n    return true;\n  }\n\n}\n",
  "sourcePath": "/media/sf_Altitude/adc-contracts/contracts/PackItems.sol",
  "compiler": {
    "name": "solc",
    "version": "0.4.24+commit.e67f0147.Emscripten.clang"
  },
  "schemaVersion": "2.0.0",
  "updatedAt": "2018-07-20T14:10:09.384Z"
}